:100000000C9462000C948A000C948A000C948A0070
:100010000C948A000C948A000C948A000C948A0038
:100020000C948A000C948A000C948A000C948A0028
:100030000C948A000C948A000C948A000C948A0018
:100040000C9486040C948A000C948A000C948A0008
:100050000C948A000C948A000C948A000C948A00F8
:100060000C94D0040C948A000000000024002700A7
:100070002A0000000000250028002B0000000000DE
:1000800023002600290004040404040404040202DA
:100090000202020203030303030301020408102007
:1000A0004080010204081020010204081020000012
:1000B0000008000201000003040700000000000027
:1000C0000000EF0511241FBECFEFD8E0DEBFCDBF8B
:1000D00011E0A0E0B1E0ECEBF2E102C005900D927E
:1000E000A83CB107D9F722E0A8ECB1E001C01D920D
:1000F000AD39B207E1F710E0C2E6D0E004C02197C5
:10010000FE010E945609C136D107C9F70E940F06A9
:100110000C945C090C94000008950895AF92BF926E
:10012000CF92DF92EF92FF920F931F93CF93DF93C3
:100130006C017B018B01040F151FEB015E01AE18F2
:10014000BF08C017D10759F06991D601ED91FC9114
:100150000190F081E02DC6010995892B79F7C50141
:10016000DF91CF911F910F91FF90EF90DF90CF9093
:10017000BF90AF900895833081F028F4813099F0DA
:100180008230A9F008958730A9F08830C9F0843012
:10019000B1F4809180008F7D03C0809180008F77C3
:1001A00080938000089584B58F7784BD089584B5C9
:1001B0008F7DFBCF8091B0008F778093B000089542
:1001C0008091B0008F7DF9CFCF93DF93282F30E05F
:1001D000F901E255FF4F8491F901E656FF4FD491A2
:1001E000F901EA57FF4FC491CC23A1F081110E947D
:1001F000BB00EC2FF0E0EE0FFF1FE458FF4FA5917E
:10020000B491EC91ED2381E090E009F480E0DF917E
:10021000CF91089580E090E0FACF1F93CF93DF93C2
:10022000282F30E0F901E255FF4F8491F901E6569D
:10023000FF4FD491F901EA57FF4FC491CC23A9F0A5
:10024000162F81110E94BB00EC2FF0E0EE0FFF1F74
:10025000EE58FF4FA591B4918FB7F894EC9111111E
:1002600008C0D095DE23DC938FBFDF91CF911F9123
:100270000895DE2BF8CFCF93DF9390E0FC01E65694
:10028000FF4F24918A579F4FFC0184918823D1F01E
:1002900090E0880F991FFC01E859FF4FA591B49198
:1002A000FC01EE58FF4FC591D49161110EC09FB76C
:1002B000F8948C91E22FE0958E238C932881E22391
:1002C000E8839FBFDF91CF9108958FB7F894EC91A9
:1002D000E22BEC938FBFF6CF1F93CF93DF93182FB2
:1002E000EB0161E00E943B01209739F460E0812F2F
:1002F000DF91CF911F910C940D01CF3FD10511F4E7
:1003000061E0F5CFE12FF0E0E255FF4FE491E330FB
:1003100031F140F4E130B1F0E230E1F0C038D10524
:100320007CF7E4CFE73029F1E83059F1E430B1F758
:1003300080918000806280938000D0938B00C09376
:100340008A0004C084B5806884BDC7BDDF91CF91A9
:100350001F91089584B5806284BDC8BDF7CF809198
:100360008000806880938000D0938900C0938800CB
:10037000EDCF8091B00080688093B000C093B3004F
:10038000E5CF8091B00080628093B000C093B4004C
:10039000DDCF8E3008F08E508770806480937C00B3
:1003A00080917A00806480937A0080917A0086FD43
:1003B000FCCF809178009091790008953FB7F89430
:1003C0008091760290917702A0917802B0917902A3
:1003D00026B5A89B05C02F3F19F00196A11DB11DA0
:1003E0003FBFBA2FA92F982F8827BC01CD01620FDC
:1003F000711D811D911D42E0660F771F881F991F97
:100400004A95D1F708958F929F92AF92BF92CF9263
:10041000DF92EF92FF924B015C010E94DE016B01C3
:100420007C010E94DE016C197D098E099F09683EDE
:10043000734081059105A8F321E0821A9108A10873
:10044000B10888EEC80E83E0D81EE11CF11C8114AF
:100450009104A104B10429F7FF90EF90DF90CF90B1
:10046000BF90AF909F908F90089585ED8093BC00D2
:100470008091BC0084FDFCCF1092800208952091F1
:100480002A02260F3327331F21323105ECF4209145
:100490008002FC0190E080E0243069F082E0089561
:1004A000A0912A022191AC01465F5D4FA40FB52FA8
:1004B000B11D2C930196861798F380912A02680F3C
:1004C00060932A0280E0089581E008950895E09104
:1004D000840280918302E81730F4F0E0E651FE4F89
:1004E000808190E008958FEF9FEF089590918402AE
:1004F000809183022FEF3FEF981748F4E92FF0E047
:10050000E651FE4F208130E09F5F90938402C90145
:1005100008958091830290918402891B990B08951C
:10052000CF92DF92EF92FF920F931F93CF93DF93BF
:100530007C01CB018A012091E901222389F0EB01A2
:100540006B01C40ED51ECC15DD0569F06991D7018C
:10055000ED91FC910190F081E02DC7010995F3CF59
:10056000642F0E943F02C801DF91CF911F910F912C
:10057000FF90EF90DF90CF900895CF93DF931F927D
:10058000CDB7DEB769832091E9012223F9F02091EC
:100590008102203258F021E030E0FC0133832283D5
:1005A00090E080E00F90DF91CF91089580918202DA
:1005B000E82FF0E0E753FE4F998190838F5F80939F
:1005C00082028093810281E090E0ECCF61E0CE0175
:1005D00001960E943F02F7CFCF93FC01C48121E036
:1005E0002093E901C093C801109282021092810207
:1005F0008385682B85E892E00E94BD02909181027C
:10060000913208F03FC0809180028111FCCF82E0DE
:100610008093800281E080937F028FEF80934D0270
:1006200010926F0290936E02A9ECB1E0EEE4F2E05A
:1006300080E098132FC01092700280917002CC0F4E
:10064000C82BC093700280917E02813039F51092E0
:100650007E02809170028093BB008091BC0083FD7C
:10066000F8CF85EC8093BC00809180028230E1F36A
:1006700080914D028F3F31F080914D02803211F018
:1006800080914D0210928202109281021092E90133
:10069000CF9108952D9121938F5FCBCF85EEE2CF3F
:1006A000089590E080E008950F931F93CF93DF9318
:1006B000EC018F3F910509F0ACF46FEF70E0681B1F
:1006C000790B10E000E08BE00E946C01B80189E03A
:1006D0000E946C01BE018AE0DF91CF911F910F91C2
:1006E0000C946C01811522E092075CF48C011A9540
:1006F0008FEF91E09C012C1B3D0BE90170E060E065
:10070000E2CFBC0172500FEF12E0081B190BD0E0D2
:10071000C0E0D9CFCF93C82F0E94E400892B41F0CD
:100720008C2F0E94E400892BD9F781E0CF910895A6
:1007300080E0FCCF8F929F92AF92BF920F931F9356
:10074000CF93DF93CDB7DEB7A1970FB6F894DEBF96
:100750000FBECDBF19A2423008F44AE08E010F5DF2
:100760001F4F842E912CB12CA12CA50194010E9425
:100770002509E62FB901CA01EA3044F5E05DD80148
:10078000EE938D01232B242B252B79F790E080E02D
:10079000109769F0FD0101900020E9F73197AF0152
:1007A0004A1B5B0BBD0181E992E00E948E00A1967D
:1007B0000FB6F894DEBF0FBECDBFDF91CF911F9172
:1007C0000F91BF90AF909F908F900895E95CD7CF25
:1007D000FC0101900020E9F73197AF01481B590B4C
:1007E000BC0181E992E00C948E000F931F93CF938C
:1007F0008C01C62F0E94EC026C2F6460C8010E941D
:10080000EC026C2F6B7FC8010E94EC0283EC90E03D
:100810000197F1F7CF911F910F9108950F931F93B7
:10082000CF93DF938C01D62FC42F607F642B0E945F
:10083000F50380E1D89FB00111246C2BC801DF9132
:10084000CF911F910F910C94F50340E061E081E995
:1008500092E00E940E048BE39FE10197F1F7089567
:10086000CF93DF93CDB7DEB728970FB6F894DEBFEE
:100870000FBECDBF98E0E4E0F1E0DE0111960190FB
:100880000D929A95E1F790919902961710F46FEFF7
:10089000690F262F30E0220F331F41E050E04C0F4C
:1008A0005D1F240F351FF9016081680F606840E00B
:1008B00081E992E028960FB6F894DEBF0FBECDBF57
:1008C000DF91CF910C940E0441E00E940E0481E070
:1008D00090E00895CF92DF92EF92FF926B017C013E
:1008E00041E06DE281E992E00E940E0466277727DD
:1008F000CB016C197D098E099F094AE00E949A0379
:100900000196FF90EF90DF90CF9008951F920F9285
:100910000FB60F9211242F933F938F939F93AF9312
:10092000BF938091720290917302A0917402B09172
:1009300075023091710223E0230F2D3758F501968F
:10094000A11DB11D209371028093720290937302D6
:10095000A0937402B0937502809176029091770211
:10096000A0917802B09179020196A11DB11D8093EA
:10097000760290937702A0937802B0937902BF91A8
:10098000AF919F918F913F912F910F900FBE0F903C
:100990001F90189526E8230F0296A11DB11DD2CFF6
:1009A0001F920F920FB60F9211242F933F934F93E4
:1009B0005F936F937F938F939F93AF93BF93EF93C7
:1009C000FF938091B900887F803609F44AC0F0F522
:1009D000883209F4A7C018F5803109F49BC0B8F437
:1009E000882309F4F9C0883009F494C0FF91EF918D
:1009F000BF91AF919F918F917F916F915F914F9137
:100A00003F912F910F900FBE0F901F901895883136
:100A100009F488C0803251F780934D0214C08034AD
:100A200009F49DC040F48033B9F38833F9F680931C
:100A30004D0285ECB0C0803509F485C0883509F4D5
:100A400096C0883499F60E943502D0CF883909F4CF
:100A50008CC038F5883729F050F4883611F080378B
:100A600029F683E08093800210924C0257C08838A8
:100A700009F47BC0803919F0803809F0B7CF809134
:100A80004C02803208F071C0E0914C0281E08E0F80
:100A900080934C028091BB00F0E0E45DFD4F8083C9
:100AA0003DC0803B39F0E0F4803A09F479C0883ADF
:100AB00009F09CCF84E08093800210922B02109268
:100AC0002A02E0917C02F0917D02099580912A0230
:100AD00081110FC081E080932A0210920A0209C09E
:100AE000803C09F4A6CF883C09F4A3CF883B09F0E9
:100AF0007DCFE0912B0281E08E0F80932B02F0E0FE
:100B0000E65FFD4F80818093BB0090912B02809126
:100B10002A0229C0809170028093BB0085EC8093EB
:100B2000BC0064CF90916F0280916E02981758F5C7
:100B3000E0916F0281E08E0F80936F02F0E0E25B44
:100B4000FD4F8081E9CFE0916F0281E08E0F8093AD
:100B50006F028091BB00F0E0E25BFD4F80839091DB
:100B60006F0280916E029817C8F285E8D8CFE091A5
:100B70006F0281E08E0F80936F028091BB00F0E0E6
:100B8000E25BFD4F808380917F0281115CCF81E029
:100B900080937E0284EA8093BC001092800226CF6C
:100BA00085EC8093BC001092800280914C028032D0
:100BB00030F4E0914C02F0E0E45DFD4F1082609172
:100BC0004C0270E0E0917A02F0917B028CE292E0BC
:100BD000099510924C020ACF10924D0234CFE5E8ED
:100BE000F2E01382128288EE93E0A0E0B0E084830A
:100BF0009583A683B78380E191E091838083E1E9C7
:100C0000F2E01382128282E291E09183808387E294
:100C1000848384E1818784E08287138608957894B1
:100C200084B5826084BD84B5816084BD85B58260F1
:100C300085BD85B5816085BD80916E0081608093A2
:100C40006E0010928100809181008260809381000B
:100C5000809181008160809381008091800081601B
:100C6000809380008091B10084608093B100809176
:100C7000B00081608093B00080917A00846080939E
:100C80007A0080917A00826080937A0080917A0065
:100C9000816080937A0080917A00806880937A00E6
:100CA0001092C10061E08BE00E943B0161E08AE0AC
:100CB0000E943B0161E089E00E943B0160E08EE020
:100CC0000E943B0160E082E00E943B0160E083E023
:100CD0000E943B0160E084E00E943B0160E085E00F
:100CE0000E943B01109284021092830210928202B1
:100CF000109281021092800281E080937F02109214
:100D00007E0261E082E10E940D0161E083E10E94C8
:100D10000D018091B9008E7F8093B9008091B90058
:100D20008D7F8093B90088E48093B80085E4809338
:100D3000BC008CE890E090937D0280937C028DE86B
:100D400090E090937B0280937A02109296028091B9
:100D50009B02823018F098E090939602809399025B
:100D600062E370E080E090E00E94030260919C02E8
:100D700081E992E00E94EC0268EE73E080E090E08E
:100D80000E94030260E381E992E00E94F503CBE454
:100D9000D6E4CE010197F1F760E381E992E00E9489
:100DA000F5032197F1F760E381E992E00E94F503F2
:100DB00083E592E00197F1F760E281E992E00E9419
:100DC000F50360919602606240E081E992E00E9442
:100DD0000E0484E08093970240E06CE081E992E0A9
:100DE0000E940E040E94250482E08093980240E055
:100DF00066E081E992E00E940E0440E062E081E951
:100E000092E00E940E048BE39FE10197F1F788E0E6
:100E100080939C0260E081E992E00E94EC0280E114
:100E2000C82E87E2D82EE12CF12C00E010E060E023
:100E30008BE00E940D0160E08AE00E940D0160E0FD
:100E400089E00E940D0182E090E00E948A03D82F81
:100E500083E090E00E948A03C82F84E090E00E9423
:100E60008A03A82E85E090E00E948A03B82E61E0F4
:100E700086E00E9430048AE291E00E94E80362E08A
:100E800083E00E94300481E391E00E94E803DD23C7
:100E900009F442C00E94250461E080E00E94300411
:100EA00080E491E00E94E80362E080E00E94300468
:100EB0008AE491E00E94E80360ED77E080E090E052
:100EC0000E9403020E94250460E080E00E9430043A
:100ED0008BE591E00E94E80361E080E00E9430042D
:100EE0008CE691E00E94E80362E080E00E9430041A
:100EF0008BE791E00E94E80363E080E00E94300409
:100F00008DE891E00E94E80368E873E180E090E0FA
:100F10000E9403020E942504CC2391F10E94250423
:100F200083E090E00E948A0390E0892B39F58EE0FF
:100F30000E94C901EC0162E080E00E94300489E96E
:100F400091E00E94E80362E08CE00E943004BE0160
:100F50000D2E000C880B990B97FF0CC00E946A04A1
:100F6000CE010E9454036CE271E080E090E00E94A8
:100F70000302D6CF4AE00E949A03F2CF0E942504D2
:100F8000AA2009F44CC084E090E00E948A03C82F94
:100F9000D0E08EE00E94C9010E942504CD2BE9F526
:100FA0008EE00E94C901873991051CF50E94250435
:100FB00062E081E00E94300486EA91E00E94E8034A
:100FC00060E08BE00E940D0160E08AE00E940D016C
:100FD00060E089E00E940D0164EF71E080E090E044
:100FE0000E94030284E090E00E948A03C82FD0E0B0
:100FF000D5CF0E94250462E081E00E94300488EB96
:1010000091E00E94E80361E08BE00E940D0161E045
:101010008AE00E940D0161E0DCCF0E942504BB2024
:10102000B9F10E94250485E090E00E948A0390E0D7
:10103000892B61F58EE00E94C901EC0162E080E03D
:101040000E94300489E991E00E94E80362E08CE0AC
:101050000E943004BE01DD0F880B990B97FF12C070
:101060000E946A040E949B08A70196010E94F3084F
:10107000CB010E9454036CE271E080E090E00E949A
:101080000302D1CF4AE00E949A03ECCF0E942504CC
:101090000115110509F4CBCE0E940000C8CE8F9235
:1010A0009F92AF92BF92CF92DF92EF92FF92CF9337
:1010B000DF93EC01688179818A819B8161157105DB
:1010C0008105910521F464E279ED8BE597E02DE14E
:1010D00033EF41E050E00E94F30849015A019B01BF
:1010E000AC01A7EAB1E40E9412096B017C01ACEEED
:1010F000B4EFA50194010E942009C60ED71EE81E78
:10110000F91EF7FE06C081E0C81AD108E10880E8A0
:10111000F80AC882D982EA82FB82C701B6019F77AA
:10112000DF91CF91FF90EF90DF90CF90BF90AF9085
:101130009F908F9008958F929F92AF92BF92CF927F
:10114000DF92EF92FF926091000170910101809116
:10115000020190910301611571058105910521F44A
:1011600064E279ED8BE597E02DE133EF41E050E06B
:101170000E94F30849015A019B01AC01A7EAB1E4BE
:101180000E9412096B017C01ACEEB4EFA501940141
:101190000E942009C60ED71EE81EF91EF7FE06C0E3
:1011A00081E0C81AD108E10880E8F80AC09200017D
:1011B000D0920101E0920201F0920301C701B60151
:1011C0009F77FF90EF90DF90CF90BF90AF909F9070
:1011D0008F90089560930001709301018093020144
:1011E000909303010895052E97FB1EF400940E942E
:1011F0000A0957FD07D00E94250907FC03D04EF4C9
:101200000C940A0950954095309521953F4F4F4FCA
:101210005F4F089590958095709561957F4F8F4FA2
:101220009F4F08950E944709A59F900DB49F900D70
:10123000A49F800D911D11240895B7FF0C941209ED
:101240000E941209821B930B0895A1E21A2EAA1B79
:10125000BB1BFD010DC0AA1FBB1FEE1FFF1FA21766
:10126000B307E407F50720F0A21BB30BE40BF50B63
:10127000661F771F881F991F1A9469F760957095EC
:10128000809590959B01AC01BD01CF010895A29F6F
:10129000B001B39FC001A39F700D811D1124911D4A
:1012A000B29F700D811D1124911D0895EE0FFF1F37
:0C12B0000590F491E02D0994F894FFCF14
:1012BC000100000000004000140054000000000079
:1012CC00BD02900251036602890276026702000099
:1012DC00000064048E00510350034E686F6D20347F
:1012EC000042616F2043616F2044652054616900A6
:1012FC0054686F6E672054696E005468616E682084
:10130C005669656E204E686F6D3A004E677579654B
:10131C006E205669657420416E6820004E677579A1
:10132C00656E2044756320416E68004E6775796563
:10133C006E2056616E20436869656E2000446F20F4
:10134C00566965742044756300476961205472695D
:10135C002051543A200044616E67204C6120426158
:10136C006E204E474159600044616E67204C6120ED
:08137C0042616E2044454D0062
:107E0000112484B714BE81FFF0D085E080938100F7
:107E100082E08093C00088E18093C10086E0809377
:107E2000C20080E18093C4008EE0C9D0259A86E02C
:107E300020E33CEF91E0309385002093840096BBD3
:107E4000B09BFECF1D9AA8958150A9F7CC24DD24C4
:107E500088248394B5E0AB2EA1E19A2EF3E0BF2EE7
:107E6000A2D0813461F49FD0082FAFD0023811F036
:107E7000013811F484E001C083E08DD089C08234E0
:107E800011F484E103C0853419F485E0A6D080C0E4
:107E9000853579F488D0E82EFF2485D0082F10E0AE
:107EA000102F00270E291F29000F111F8ED06801E7
:107EB0006FC0863521F484E090D080E0DECF843638
:107EC00009F040C070D06FD0082F6DD080E0C81688
:107ED00080E7D80618F4F601B7BEE895C0E0D1E017
:107EE00062D089930C17E1F7F0E0CF16F0E7DF06D8
:107EF00018F0F601B7BEE89568D007B600FCFDCFD4
:107F0000A601A0E0B1E02C9130E011968C91119780
:107F100090E0982F8827822B932B1296FA010C0160
:107F200087BEE89511244E5F5F4FF1E0A038BF0790
:107F300051F7F601A7BEE89507B600FCFDCF97BE46
:107F4000E89526C08437B1F42ED02DD0F82E2BD052
:107F50003CD0F601EF2C8F010F5F1F4F84911BD097
:107F6000EA94F801C1F70894C11CD11CFA94CF0C13
:107F7000D11C0EC0853739F428D08EE10CD085E9AC
:107F80000AD08FE07ACF813511F488E018D01DD067
:107F900080E101D065CF982F8091C00085FFFCCF94
:107FA0009093C60008958091C00087FFFCCF809118
:107FB000C00084FD01C0A8958091C6000895E0E648
:107FC000F0E098E1908380830895EDDF803219F02E
:107FD00088E0F5DFFFCF84E1DECF1F93182FE3DFCA
:107FE0001150E9F7F2DF1F91089580E0E8DFEE27F6
:047FF000FF270994CA
:027FFE00040479
:0400000300007E007B
:00000001FF
