:100000000C9462000C948A000C948A000C948A0070
:100010000C948A000C948A000C948A000C948A0038
:100020000C948A000C948A000C948A000C948A0028
:100030000C948A000C948A000C948A000C948A0018
:100040000C943D070C948A000C9458030C943203D2
:100050000C948A000C948A000C948A000C948A00F8
:100060000C948A030C948A000000000024002700EE
:100070002A0000000000250028002B0000000000DE
:1000800023002600290004040404040404040202DA
:100090000202020203030303030301020408102007
:1000A0004080010204081020010204081020000012
:1000B0000008000201000003040700000000000027
:1000C0000000110A11241FBECFEFD8E0DEBFCDBF64
:1000D00011E0A0E0B1E0E6EDF6E102C005900D927E
:1000E000AE3DB107D9F723E0AEEDB1E001C01D92FE
:1000F000A035B207E1F710E0C2E6D0E004C02197D6
:10010000FE010E945E0BC136D107C9F70E94870726
:100110000C94690B0C94000008950895CF92DF921F
:10012000EF92FF920F931F93CF93DF936C017A01AD
:100130008B01C0E0D0E0CE15DF0581F0D8016D91D4
:100140008D01D601ED91FC910190F081E02DC60169
:100150000995892B11F02196EECF7E01C701DF9121
:10016000CF911F910F91FF90EF90DF90CF90089566
:10017000FC01538D448D252F30E0842F90E0821BAD
:10018000930B541710F0CF96089501970895FC0132
:10019000918D828D981761F0828DDF01A80FB11DBE
:1001A0005D968C91928D9F5F9F73928F90E00895E2
:1001B0008FEF9FEF0895FC01918D828D981731F09C
:1001C000828DE80FF11D858D90E008958FEF9FEFF0
:1001D0000895FC01918D228D892F90E0805C9F4FC6
:1001E000821B91098F739927089582E992E00E94FA
:1001F000E90021E0892B09F420E0822F0895FC0119
:10020000848DDF01A80FB11DA35ABF4F2C91848D9F
:1002100090E001968F739927848FA689B7892C93D4
:10022000A089B1898C91837080648C93938D848D27
:10023000981306C00288F389E02D80818F7D80832A
:100240000895EF92FF920F931F93CF93DF93EC01EA
:1002500081E0888F9B8D8C8D981305C0E889F98982
:10026000808185FD26C0F62E0B8D10E00F5F1F4F9D
:100270000F731127E02E8C8DE8120CC00FB607FC0F
:10028000FACFE889F989808185FFF5CFCE010E94F8
:10029000FF00F1CF8B8DFE01E80FF11DE35AFF4FF8
:1002A000F0829FB7F8940B8FEA89FB898081806286
:1002B0000AC09FB7F894EE89FF896083E889F989BD
:1002C00080818370806480839FBF81E090E0DF91B4
:1002D000CF911F910F91FF90EF900895CF93DF93EF
:1002E000EC01888D8823C9F0EA89FB89808185FD2E
:1002F00005C0A889B9898C9186FD0FC00FB607FC8F
:10030000F5CF808185FFF2CFA889B9898C9185FFCF
:10031000EDCFCE010E94FF00E7CFDF91CF9108958E
:1003200080E090E0892B29F00E94F50081110C9467
:100330000000089585ED8093BC008091BC0084FD91
:10034000FCCF10928D02089540914002262F30E09C
:10035000240F311D21323105DCF420918D0224302F
:10036000C9F4FC0180E090E0861758F43091400217
:100370002191DC01A05EBD4FA30FB11D2C9301960E
:10038000F3CF80914002680F6093400280E00895AF
:1003900081E0089582E008950895E09191028091AE
:1003A0009002E81730F4F0E0E050FE4F808190E0DA
:1003B00008958FEF9FEF08959091910280919002A0
:1003C000981750F4E92FF0E0E050FE4F208130E024
:1003D0009F5F9093910202C02FEF3FEFC9010895F4
:1003E0008091900290E020919102821B91090895E2
:1003F000CF92DF92EF92FF920F931F93CF93DF93F1
:100400007C01CB018A012091FF01222389F0EB01BD
:100410006B01C40ED51ECC15DD0569F06991D701BD
:10042000ED91FC910190F081E02DC7010995F3CF8A
:10043000642F0E94A401C801DF91CF911F910F91F9
:10044000FF90EF90DF90CF900895CF93DF931F92AE
:10045000CDB7DEB769832091FF012223D1F020912F
:100460008E02203240F021E030E0FC013383228311
:1004700080E090E015C080918F02E82FF0E0E1521B
:10048000FE4F998190838F5F80938F0280938E02BD
:1004900005C061E0CE0101960E94A40181E090E0D8
:1004A0000F90DF91CF910895CF93FC01C48121E09B
:1004B0002093FF01C093DE0110928F0210928E02F2
:1004C0008385682B8FE293E00E94250290918E0233
:1004D000913208F045C080918D028111FCCF82E0FD
:1004E00080938D0281E080938C028FEF8093630272
:1004F0001092850290938402AFEDB1E0E4E6F2E061
:1005000080E0981721F02D9121938F5FFACF109200
:10051000860280918602CC0FC82BC0938602809100
:100520008B02813061F410928B028091860280935D
:10053000BB008091BC0083FDF8CF85EC01C085EE47
:100540008093BC0080918D028230E1F38091630240
:100550008F3F31F080916302803211F0809163020D
:1005600010928F0210928E021092FF01CF91089587
:100570000F931F93CF938C01C62F0E9454026C2FB0
:100580006460C8010E9454026C2F6B7FC8010E94F6
:10059000540283EC90E00197F1F7CF911F910F91F6
:1005A0000895089580E090E008950E94640B0F93F1
:1005B0001F93CF93DF93EC018F3F910509F03CF43B
:1005C0006FEF70E0681B790B00E010E017C0811539
:1005D00022E092075CF48C011A958FEF91E09C0168
:1005E0002C1B3D0BE90160E070E008C0BC017250BB
:1005F0000FEF12E0081B190BC0E0D0E08BE00E9467
:100600008D06B80189E00E948D06BE018AE0DF9167
:10061000CF911F910F910C948D06CF93C82F0E94FC
:10062000F905892B39F08C2F0E94F905892BD9F710
:1006300081E001C080E0CF9108956115710579F0E6
:10064000FB0101900020E9F73197AF01461B570BE2
:10065000DC01ED91FC910280F381E02D099480E0B2
:1006600090E008951F920F920FB60F9211242F93CE
:100670003F934F935F936F937F938F939F93AF932A
:10068000BF93EF93FF9382E992E00E94FF00FF91F6
:10069000EF91BF91AF919F918F917F916F915F91FA
:1006A0004F913F912F910F900FBE0F901F90189573
:1006B0001F920F920FB60F9211242F938F939F9337
:1006C000EF93FF93E091A202F091A3028081E09169
:1006D000A802F091A90282FD12C090818091AB0224
:1006E0008F5F8F732091AC02821751F0E091AB02C3
:1006F000F0E0EE56FD4F958F8093AB0201C08081F4
:10070000FF91EF919F918F912F910F900FBE0F90BE
:100710001F9018951F920F920FB60F9211242F93CE
:100720003F934F935F936F937F938F939F93AF9379
:10073000BF93EF93FF938091B900887F803609F4CF
:100740009CC068F5883209F45BC090F4803109F4EC
:1007500054C038F4882309F4F6C0883009F44DC039
:10076000F6C0883109F44CC0803209F45DC0EFC096
:10077000803409F468C048F4803309F455C08833E4
:1007800009F0E5C080936302D8C0803509F44FC0FA
:10079000883509F45DC0883409F0D9C0D6C08839DD
:1007A00009F4C7C0A8F4883709F467C038F488365C
:1007B00009F463C0803709F460C0C9C0883809F4FF
:1007C000B8C0803909F45FC0803809F0C0C05BC090
:1007D000803B09F486C038F4803A09F466C0883A50
:1007E00009F47FC0B4C0803C09F4A7C0883C09F478
:1007F000A4C0883B09F48AC0AAC08091860210C0B8
:100800009091850280918402981770F5E09185029D
:1008100081E08E0F80938502F0E0EC59FD4F8081DE
:100820008093BB0085EC86C0809363028EC0E0910C
:10083000850281E08E0F809385028091BB00F0E0FD
:10084000EC59FD4F808390918502809184026EC0A7
:10085000E091850281E08E0F809385028091BB003C
:10086000F0E0EC59FD4F808380918C0281116DC0C6
:1008700081E080938B0284EA61C083E080938D02E3
:1008800010926202CFCF80916202803208F051C094
:10089000E091620281E08E0F809362028091BB0042
:1008A000F0E0EE5BFD4F8083BDCF85EC8093BC0014
:1008B00010928D0280916202803230F4E0916202E7
:1008C000F0E0EE5BFD4F10826091620270E0E0911B
:1008D0008702F091880282E492E009951092620208
:1008E00036C084E080938D02109241021092400243
:1008F000E0918902F0918A0209958091400281116C
:1009000005C081E08093400210922002E0914102F4
:1009100081E08E0F80934102F0E0E05EFD4F808128
:100920008093BB009091410280914002981708F497
:1009300079CF85E88093BC000AC085EC8093BC0029
:1009400010928D0204C0109263020E949A01FF91DE
:10095000EF91BF91AF919F918F917F916F915F9137
:100960004F913F912F910F900FBE0F901F901895B0
:100970000F931F93CF93DF938C01C62FD42F607FEB
:10098000642B0E94B80280E1C89FB00111246D2B36
:10099000C801DF91CF911F910F910C94B80241E0F3
:1009A0000E94B80481E090E00895833081F028F43B
:1009B000813099F08230A1F008958730A9F0883015
:1009C000B9F08430D1F4809180008F7D03C0809194
:1009D00080008F7780938000089584B58F7702C060
:1009E00084B58F7D84BD08958091B0008F7703C05A
:1009F0008091B0008F7D8093B00008953FB7F89448
:100A000080914C0390914D03A0914E03B0914F0300
:100A100026B5A89B05C02F3F19F00196A11DB11D59
:100A20003FBFBA2FA92F982F8827820F911DA11D94
:100A3000B11DBC01CD0142E0660F771F881F991FD1
:100A40004A95D1F7089540E061E08BE393E00E947E
:100A5000B8048BE39FE10197F1F70895BC018BE3A4
:100A600093E00C941D03CF93DF93CDB7DEB72897A7
:100A70000FB6F894DEBF0FBECDBF98E0E4E0F1E022
:100A8000DE01119601900D929A95E1F79091430342
:100A9000961710F46FEF690FFE013196E60FF11D06
:100AA000E60FF11D6081680F606840E08BE393E022
:100AB00028960FB6F894DEBF0FBECDBFDF91CF9161
:100AC0000C94B8044F925F926F927F928F929F9294
:100AD000AF92BF92CF92DF92EF92FF920F931F934C
:100AE000CF93DF93CDB7DEB7A1970FB6F894DEBFF3
:100AF0000FBECDBF8C016A017B0177FF2FC0DC01E7
:100B0000ED91FC910190F081E02D6DE209955C0181
:100B100022273327A9012C193D094E095F0919A283
:100B2000FE01B1967F019AE0492E512C612C712C67
:100B3000CA01B901A30192010E942D0B605DD7018A
:100B40006E937D01211531054105510589F7BD01E0
:100B5000C8010E941D038A0D9B1D1EC09A01AB0196
:100B600019A2FE01B1967F018AE0882E912CA12C5A
:100B7000B12CCA01B901A50194010E942D0B605D41
:100B8000D7016E937D01211531054105510589F786
:100B9000BD01C8010E941D03A1960FB6F894DEBFE7
:100BA0000FBECDBFDF91CF911F910F91FF90EF90BE
:100BB000DF90CF90BF90AF909F908F907F906F907D
:100BC0005F904F900895CF93DF93AC01990F660B20
:100BD000770B82E992E00E946205EC016BEA71E01A
:100BE00082E992E00E941D038C0F9D1FDF91CF913F
:100BF0000895CF93DF93282F30E0F901E255FF4F9E
:100C00008491F901E656FF4FD491F901EA57FF4F5D
:100C1000C491CC2391F081110E94D504EC2FF0E017
:100C2000EE0FFF1FE458FF4FA591B491EC91ED2317
:100C300081E090E021F480E002C080E090E0DF916C
:100C4000CF9108951F93CF93DF93282F30E0F901C0
:100C5000E255FF4F8491F901E656FF4FD491F90117
:100C6000EA57FF4FC491CC23C1F0162F81110E9487
:100C7000D504EC2FF0E0EE0FFF1FEE58FF4FA591CB
:100C8000B4919FB7F894111104C08C91D095D823DA
:100C900002C0EC91DE2BDC939FBFDF91CF911F91BF
:100CA0000895CF93DF9390E0FC01E656FF4F249127
:100CB000FC01EA57FF4F8491882361F190E0880F8F
:100CC000991FFC01E859FF4FC591D491FC01EE58E2
:100CD000FF4FA591B491611109C09FB7F894888125
:100CE000209582238883EC912E230BC0623061F41F
:100CF0009FB7F8948881322F309583238883EC91B5
:100D00002E2B2C939FBF06C08FB7F894E8812E2B13
:100D100028838FBFDF91CF9108951F93CF93DF93E7
:100D2000182FEB0161E00E945106209711F460E05A
:100D300004C0CF3FD10539F461E0812FDF91CF911D
:100D40001F910C942206E12FF0E0E255FF4FE49151
:100D5000E330F9F048F4E130B9F0E230A1F584B5C0
:100D6000806284BDC8BD34C0E730E9F0E83019F1D5
:100D7000E43049F580918000806280938000D093B8
:100D80008B00C0938A0024C084B5806884BDC7BD31
:100D90001FC080918000806880938000D09389007C
:100DA000C093880015C08091B00080688093B00027
:100DB000C093B3000DC08091B00080628093B000FA
:100DC000C093B40005C0C038D1050CF0B5CFAFCF8B
:100DD000DF91CF911F9108958E3008F08E5087706B
:100DE000806480937C0080917A00806480937A0094
:100DF00080917A0086FDFCCF809178002091790067
:100E000090E0922B08958F929F92AF92BF92CF92D3
:100E1000DF92EF92FF926B017C010E94FE044B0176
:100E20005C01C114D104E104F104F1F00E94FE045C
:100E3000DC01CB0188199909AA09BB09883E9340B6
:100E4000A105B10570F321E0C21AD108E108F1084B
:100E500088EE880E83E0981EA11CB11CC114D10439
:100E6000E104F10419F7DDCFFF90EF90DF90CF9010
:100E7000BF90AF909F908F9008951F920F920FB6E2
:100E80000F9211242F933F938F939F93AF93BF9310
:100E90008091480390914903A0914A03B0914B037C
:100EA0003091470323E0230F2D3720F40196A11D35
:100EB000B11D05C026E8230F0296A11DB11D209388
:100EC00047038093480390934903A0934A03B09348
:100ED0004B0380914C0390914D03A0914E03B09130
:100EE0004F030196A11DB11D80934C0390934D03B8
:100EF000A0934E03B0934F03BF91AF919F918F91F9
:100F00003F912F910F900FBE0F901F9018957894DE
:100F100084B5826084BD84B5816084BD85B58260FE
:100F200085BD85B5816085BD80916E0081608093AF
:100F30006E00109281008091810082608093810018
:100F40008091810081608093810080918000816028
:100F5000809380008091B10084608093B100809183
:100F6000B00081608093B00080917A0084608093AB
:100F70007A0080917A00826080937A0080917A0072
:100F8000816080937A0080917A00806880937A00F3
:100F90001092C100E091A202F091A30282E080834E
:100FA000E0919E02F0919F021082E091A002F091E8
:100FB000A1028FEC80831092AA02E091A602F09128
:100FC000A70286E08083E091A402F091A5028081CF
:100FD00080618083E091A402F091A5028081886005
:100FE0008083E091A402F091A502808180688083D3
:100FF000E091A402F091A50280818F7D808361E061
:101000008BE00E94510661E08AE00E94510661E097
:1010100089E00E94510660E08EE00E94510660E087
:1010200082E00E94510660E083E00E94510660E089
:1010300084E00E94510660E085E00E945106109213
:1010400091021092900210928F0210928E021092D2
:101050008D0281E080938C0210928B0261E082E12C
:101060000E94220661E083E10E9422068091B9007D
:101070008E7F8093B9008091B9008D7F8093B900F5
:1010800088E48093B80085E48093BC008CE890E00D
:1010900090938A02809389028DE890E09093880271
:1010A000809387021092400380914503823018F0AC
:1010B00098E0909340038093430362E370E080E004
:1010C00090E00E940307609146038BE393E00E9447
:1010D000540268EE73E080E090E00E94030760E352
:1010E0008BE393E00E94B802CBE4D6E4CE010197F3
:1010F000F1F760E38BE393E00E94B8022197F1F7E8
:1011000060E38BE393E00E94B80283E592E00197ED
:10111000F1F760E28BE393E00E94B8026091400334
:10112000606240E08BE393E00E94B80484E0809327
:10113000410340E06CE08BE393E00E94B8040E941E
:10114000230582E08093420340E066E08BE393E076
:101150000E94B80440E062E08BE393E00E94B80490
:101160008BE39FE10197F1F788E08093460360E00D
:101170008BE393E00E94540280E1C82E87E2D82ED0
:10118000E12CF12C60E08BE00E94220660E08AE016
:101190000E94220660E089E00E94220682E090E040
:1011A0000E940D03D82F83E090E00E940D03C82F0A
:1011B000A82EB12C84E090E00E940D03082F85E05A
:1011C00090E00E940D03182F61E086E00E94330535
:1011D0008CE391E00E942E0562E083E00E943305DB
:1011E00083E491E00E942E05DD2309F442C00E94B1
:1011F000230561E080E00E94330582E591E00E94D2
:101200002E0562E080E00E9433058CE591E00E94AB
:101210002E0560ED77E080E090E00E9403070E94D9
:10122000230560E080E00E9433058DE691E00E9496
:101230002E0561E080E00E9433058CE791E00E947A
:101240002E0562E080E00E94330589E891E00E946B
:101250002E0563E080E00E94330588E991E00E945A
:101260002E0568E873E180E090E00E9403070E9489
:10127000230567EA71E082E992E00E941D036BEAB0
:1012800071E082E992E00E941D03C5010E94E3051E
:10129000CC2389F10E94230583E090E00E940D0396
:1012A00090E0892B31F58EE00E94EC06EC0162E0C3
:1012B00080E00E9433058EEA91E00E942E0562E0F4
:1012C0008CE00E943305AE010D2E000C660B770BEF
:1012D0008BE393E00E946205CE010E94E305CE01FC
:1012E0000E94D7026CE271E080E090E00E94030768
:1012F000D3CF0E942305002309F44CC084E090E082
:101300000E940D03C82FD0E08EE00E94EC060E94E0
:101310002305CD2BE9F58EE00E94EC068739910577
:10132000A4F40E94230562E081E00E9433058BEB68
:1013300091E00E942E0560E08BE00E94220660E0B2
:101340008AE00E94220660E013C00E94230562E04A
:1013500081E00E9433058DEC91E00E942E0561E052
:101360008BE00E94220661E08AE00E94220661E092
:1013700089E00E94220664EF71E080E090E00E9424
:10138000030784E090E00E940D03C82FD0E0C1CF96
:101390000E942305112309F441C00E94230585E022
:1013A00090E00E940D03C82FD0E0CE010E94E3051B
:1013B000CD2B91F58EE00E94EC06EC0162E080E01E
:1013C0000E9433058EEA91E00E942E0562E08CE0D7
:1013D0000E943305AE010D2E000C660B770B8BE3DC
:1013E00093E00E946205CE010E94E3050E94A40AD8
:1013F000A70196010E94FB0ACB010E94D7026CE272
:1014000071E080E090E00E94030785E090E00E9498
:101410000D03C82FD0E0CCCF0E9423050E9490017D
:10142000B1CEE2E9F2E01382128288EE93E0A0E00E
:10143000B0E084839583A683B78320E131E03183D4
:10144000208325EC30E03587248724EC30E0378793
:10145000268720EC30E0318B208B21EC30E0338B81
:10146000228B22EC30E0358B248B26EC30E0378B5E
:10147000268B118E128E138E148EEFE2F3E0138200
:10148000128284839583A683B78382E291E091835D
:101490008083EBE3F3E01382128284E391E0918393
:1014A000808387E2848384E1818784E08287138656
:1014B00008958F929F92AF92BF92CF92DF92EF9258
:1014C000FF92CF93DF93EC01688179818A819B81C0
:1014D000611571058105910521F464E279ED8BE5D3
:1014E00097E02DE133EF41E050E00E94FB0A490113
:1014F0005A019B01AC01A7EAB1E40E941A0B6B01EF
:101500007C01ACEEB4EFA50194010E94280BDC0134
:10151000CB018C0D9D1DAE1DBF1DB7FF03C00197F4
:10152000A109B04888839983AA83BB83BC01CD01FC
:101530009F77DF91CF91FF90EF90DF90CF90BF909A
:10154000AF909F908F9008958F929F92AF92BF928D
:10155000CF92DF92EF92FF926091000170910101B2
:10156000809102019091030161157105810591053A
:1015700021F464E279ED8BE597E02DE133EF41E072
:1015800050E00E94FB0A49015A019B01AC01A7EA05
:10159000B1E40E941A0B6B017C01ACEEB4EFA50123
:1015A00094010E94280BDC01CB018C0D9D1DAE1D0A
:1015B000BF1DB7FF03C00197A109B0488093000188
:1015C00090930101A0930201B0930301BC01CD01EE
:1015D0009F77FF90EF90DF90CF90BF90AF909F905C
:1015E0008F90089560930001709301018093020130
:1015F000909303010895052E97FB1EF400940E941A
:10160000120B57FD07D00E942D0B07FC03D04EF4A0
:101610000C94120B50954095309521953F4F4F4FAC
:101620005F4F089590958095709561957F4F8F4F8E
:101630009F4F08950E944F0BA59F900DB49F900D52
:10164000A49F800D911D11240895B7FF0C941A0BCF
:101650000E941A0B821B930B0895A1E21A2EAA1B5B
:10166000BB1BFD010DC0AA1FBB1FEE1FFF1FA21752
:10167000B307E407F50720F0A21BB30BE40BF50B4F
:10168000661F771F881F991F1A9469F760957095D8
:10169000809590959B01AC01BD01CF010895A29F5B
:1016A000B001B39FC001A39F700D811D1124911D36
:1016B000B29F700D811D1124911D0895EE0FFF1F23
:1016C0000590F491E02D099481E090E0F8940C9459
:0616D000690BF894FFCF46
:1016D600010000000000400014005400000000005B
:1016E60021018E00B8006E01E900C700DB00000092
:1016F60000002502F801D202CC01F001DC01CD0187
:1017060000000000CF048E00D202D1024E686F6D39
:1017160020350042616F2043616F2044652054618B
:10172600690054686F6E672054696E005468616E74
:1017360068205669656E204E686F6D3A004C6520CC
:101746005472756E67205468616E680043616F203D
:101756004D696E682054616D004E677579656E201F
:10176600546869204E676100446F2043756F6E6749
:10177600204769616E6700425432000D0A004769CE
:1017860061205472692051543A200044616E6720EA
:101796004C612042616E204E474159600044616EA3
:0E17A60067204C612042616E2044454D0000DA
:00000001FF
